{
  "transactions": [
    {
      "hash": "0x8a722bebb22c09aa8e5d8a007d6d5d2920b33c7463ccdd6caaea0a3a90f0ed55",
      "transactionType": "CALL",
      "contractName": null,
      "contractAddress": "0x9fe71a8fb340e1cc13f61691bcaddb83ae6c00ac",
      "function": "mint(address,uint256)",
      "arguments": [
        "0x3DC925E1FB6b45684e892b7f521f4751089c4949",
        "1000000000000000000000"
      ],
      "transaction": {
        "from": "0x3dc925e1fb6b45684e892b7f521f4751089c4949",
        "to": "0x9fe71a8fb340e1cc13f61691bcaddb83ae6c00ac",
        "gas": "0x17086",
        "value": "0x0",
        "input": "0x40c10f190000000000000000000000003dc925e1fb6b45684e892b7f521f4751089c494900000000000000000000000000000000000000000000003635c9adc5dea00000",
        "nonce": "0x80",
        "chainId": "0xaa36a7"
      },
      "additionalContracts": [],
      "isFixedGasLimit": false
    },
    {
      "hash": "0x58df84d0fa3dad3ba67eff53254e115f687b8337fe44093fd0609a544c99be30",
      "transactionType": "CALL",
      "contractName": null,
      "contractAddress": "0x9fe71a8fb340e1cc13f61691bcaddb83ae6c00ac",
      "function": "approve(address,uint256)",
      "arguments": [
        "0x2b925D1036E2E17F79CF9bB44ef91B95a3f9a084",
        "115792089237316195423570985008687907853269984665640564039457584007913129639935"
      ],
      "transaction": {
        "from": "0x3dc925e1fb6b45684e892b7f521f4751089c4949",
        "to": "0x9fe71a8fb340e1cc13f61691bcaddb83ae6c00ac",
        "gas": "0xfad1",
        "value": "0x0",
        "input": "0x095ea7b30000000000000000000000002b925d1036e2e17f79cf9bb44ef91b95a3f9a084ffffffffffffffffffffffffffffffffffffffffffffffffffffffffffffffff",
        "nonce": "0x81",
        "chainId": "0xaa36a7"
      },
      "additionalContracts": [],
      "isFixedGasLimit": false
    },
    {
      "hash": "0x0be18f981655e263c820027bcb411cbb1a91f1a0a8cebd135aa8985f96305d27",
      "transactionType": "CALL",
      "contractName": null,
      "contractAddress": "0x9fe71a8fb340e1cc13f61691bcaddb83ae6c00ac",
      "function": "approve(address,uint256)",
      "arguments": [
        "0xB8b53649b87F0e1eb3923305490a5cB288083f82",
        "115792089237316195423570985008687907853269984665640564039457584007913129639935"
      ],
      "transaction": {
        "from": "0x3dc925e1fb6b45684e892b7f521f4751089c4949",
        "to": "0x9fe71a8fb340e1cc13f61691bcaddb83ae6c00ac",
        "gas": "0xfad1",
        "value": "0x0",
        "input": "0x095ea7b3000000000000000000000000b8b53649b87f0e1eb3923305490a5cb288083f82ffffffffffffffffffffffffffffffffffffffffffffffffffffffffffffffff",
        "nonce": "0x82",
        "chainId": "0xaa36a7"
      },
      "additionalContracts": [],
      "isFixedGasLimit": false
    },
    {
      "hash": "0x1af6c9c2b0ec1c5c784705f4a4c1881bb318a87f06232b09d7b76104a025c969",
      "transactionType": "CALL",
      "contractName": null,
      "contractAddress": "0x2b925d1036e2e17f79cf9bb44ef91b95a3f9a084",
      "function": "modifyLiquidity((address,address,uint24,int24,address),(int24,int24,int256,bytes32),bytes)",
      "arguments": [
        "(0x0000000000000000000000000000000000000000, 0x9fE71A8fb340E1cC13F61691bCaDDB83aE6c00ac, 3000, 60, 0xCd3EB6f3F81b62a4E544Ff513727dE1978078040)",
        "(-60, 60, 1000000000000000000, 0x0000000000000000000000000000000000000000000000000000000000000000)",
        "0x"
      ],
      "transaction": {
        "from": "0x3dc925e1fb6b45684e892b7f521f4751089c4949",
        "to": "0x2b925d1036e2e17f79cf9bb44ef91b95a3f9a084",
        "gas": "0x5ca4a",
        "value": "0xaa87bee538000",
        "input": "0x5a6bcfda00000000000000000000000000000000000000000000000000000000000000000000000000000000000000009fe71a8fb340e1cc13f61691bcaddb83ae6c00ac0000000000000000000000000000000000000000000000000000000000000bb8000000000000000000000000000000000000000000000000000000000000003c000000000000000000000000cd3eb6f3f81b62a4e544ff513727de1978078040ffffffffffffffffffffffffffffffffffffffffffffffffffffffffffffffc4000000000000000000000000000000000000000000000000000000000000003c0000000000000000000000000000000000000000000000000de0b6b3a7640000000000000000000000000000000000000000000000000000000000000000000000000000000000000000000000000000000000000000000000000000000001400000000000000000000000000000000000000000000000000000000000000000",
        "nonce": "0x83",
        "chainId": "0xaa36a7"
      },
      "additionalContracts": [],
      "isFixedGasLimit": false
    }
  ],
  "receipts": [
    {
      "status": "0x1",
      "cumulativeGasUsed": "0x978607",
      "logs": [
        {
          "address": "0x9fe71a8fb340e1cc13f61691bcaddb83ae6c00ac",
          "topics": [
            "0xddf252ad1be2c89b69c2b068fc378daa952ba7f163c4a11628f55a4df523b3ef",
            "0x0000000000000000000000000000000000000000000000000000000000000000",
            "0x0000000000000000000000003dc925e1fb6b45684e892b7f521f4751089c4949"
          ],
          "data": "0x00000000000000000000000000000000000000000000003635c9adc5dea00000",
          "blockHash": "0xd2ea40ac7aedbc7157009c5638b6c583ef5d0b44c301a347d87dfb70426cf88d",
          "blockNumber": "0x5c7db2",
          "transactionHash": "0x8a722bebb22c09aa8e5d8a007d6d5d2920b33c7463ccdd6caaea0a3a90f0ed55",
          "transactionIndex": "0x4e",
          "logIndex": "0xa0",
          "removed": false
        }
      ],
      "logsBloom": "0x00000000000000000000000000000000000000000000000000000000000000000000000000000000000000000800000000000000000000000000000000000000000000000000000000000008000000000000000001000000000000000000000000000000020000000000000000000820000000000000000000000010000200000000000000000200000000000000000000000000000000000000000000000000000000000000000000000000000000000000000000000000000000000000000000000002080000000000000000000000000000000000000000000000000020000000000000000000000000000000000000000000000000000000000000000000",
      "type": "0x2",
      "transactionHash": "0x8a722bebb22c09aa8e5d8a007d6d5d2920b33c7463ccdd6caaea0a3a90f0ed55",
      "transactionIndex": "0x4e",
      "blockHash": "0xd2ea40ac7aedbc7157009c5638b6c583ef5d0b44c301a347d87dfb70426cf88d",
      "blockNumber": "0x5c7db2",
      "gasUsed": "0x10acf",
      "effectiveGasPrice": "0x3b9f27fd",
      "from": "0x3dc925e1fb6b45684e892b7f521f4751089c4949",
      "to": "0x9fe71a8fb340e1cc13f61691bcaddb83ae6c00ac",
      "contractAddress": null
    },
    {
      "status": "0x1",
      "cumulativeGasUsed": "0x5f8924",
      "logs": [
        {
          "address": "0x9fe71a8fb340e1cc13f61691bcaddb83ae6c00ac",
          "topics": [
            "0x8c5be1e5ebec7d5bd14f71427d1e84f3dd0314c0f7b2291e5b200ac8c7c3b925",
            "0x0000000000000000000000003dc925e1fb6b45684e892b7f521f4751089c4949",
            "0x0000000000000000000000002b925d1036e2e17f79cf9bb44ef91b95a3f9a084"
          ],
          "data": "0xffffffffffffffffffffffffffffffffffffffffffffffffffffffffffffffff",
          "blockHash": "0x32493ce5721ac1b91064bdb48002fc6c0a5131b7b4cfbccaf7ad62dbcb66b436",
          "blockNumber": "0x5c7db3",
          "transactionHash": "0x58df84d0fa3dad3ba67eff53254e115f687b8337fe44093fd0609a544c99be30",
          "transactionIndex": "0x1b",
          "logIndex": "0x3a",
          "removed": false
        }
      ],
      "logsBloom": "0x00000000000000000000000000000000000000000000000000000000000000000002000000000000000000000800000000000000000000000000000000200000000000000000200000000000000000000000000001000000000000000000000000000000000000000000000000000020000000000000000000000000000200000000000000000200000000000000000000000000000000000000000000000000020000000000000000000000000000000000000000000000000000000000000000000000080000000000000000020000000000000000000000000000000000000010000000000000000000000000000000000000000000000000000000000000",
      "type": "0x2",
      "transactionHash": "0x58df84d0fa3dad3ba67eff53254e115f687b8337fe44093fd0609a544c99be30",
      "transactionIndex": "0x1b",
      "blockHash": "0x32493ce5721ac1b91064bdb48002fc6c0a5131b7b4cfbccaf7ad62dbcb66b436",
      "blockNumber": "0x5c7db3",
      "gasUsed": "0xb597",
      "effectiveGasPrice": "0x3b9fb39e",
      "from": "0x3dc925e1fb6b45684e892b7f521f4751089c4949",
      "to": "0x9fe71a8fb340e1cc13f61691bcaddb83ae6c00ac",
      "contractAddress": null
    },
    {
      "status": "0x1",
      "cumulativeGasUsed": "0x603ebb",
      "logs": [
        {
          "address": "0x9fe71a8fb340e1cc13f61691bcaddb83ae6c00ac",
          "topics": [
            "0x8c5be1e5ebec7d5bd14f71427d1e84f3dd0314c0f7b2291e5b200ac8c7c3b925",
            "0x0000000000000000000000003dc925e1fb6b45684e892b7f521f4751089c4949",
            "0x000000000000000000000000b8b53649b87f0e1eb3923305490a5cb288083f82"
          ],
          "data": "0xffffffffffffffffffffffffffffffffffffffffffffffffffffffffffffffff",
          "blockHash": "0x32493ce5721ac1b91064bdb48002fc6c0a5131b7b4cfbccaf7ad62dbcb66b436",
          "blockNumber": "0x5c7db3",
          "transactionHash": "0x0be18f981655e263c820027bcb411cbb1a91f1a0a8cebd135aa8985f96305d27",
          "transactionIndex": "0x1c",
          "logIndex": "0x3b",
          "removed": false
        }
      ],
      "logsBloom": "0x00000000000000000000000000000000000000000000000000000000000000000000000000000000000000000800000000000000000000000000000000200000000000000000000000000000000000000000000001000000000000000000000000000000000001000000000000000020000000000000000000000000000200000000000000000200000000000000000000000000000000000000000000000000020000000000000000000000000000000000000000000000000000000000000000000000080000000000000000000000000000000000000000000000000000040010000000000000000000000000000000000000000000000000000000200000",
      "type": "0x2",
      "transactionHash": "0x0be18f981655e263c820027bcb411cbb1a91f1a0a8cebd135aa8985f96305d27",
      "transactionIndex": "0x1c",
      "blockHash": "0x32493ce5721ac1b91064bdb48002fc6c0a5131b7b4cfbccaf7ad62dbcb66b436",
      "blockNumber": "0x5c7db3",
      "gasUsed": "0xb597",
      "effectiveGasPrice": "0x3b9fb39e",
      "from": "0x3dc925e1fb6b45684e892b7f521f4751089c4949",
      "to": "0x9fe71a8fb340e1cc13f61691bcaddb83ae6c00ac",
      "contractAddress": null
    },
    {
      "status": "0x1",
      "cumulativeGasUsed": "0x646fe2",
      "logs": [
        {
          "address": "0x75e7c1fd26deff28c7d1e82564ad5c24ca10db14",
          "topics": [
            "0x541c041c2cce48e614b3de043c9280f06b6164c0a1741649e2de3c3d375f7974",
            "0xfb6f0225cfed98e44ea79d035af806b8ed7e9e5da85c15f25aa6765e89ee7e94",
            "0x0000000000000000000000002b925d1036e2e17f79cf9bb44ef91b95a3f9a084"
          ],
          "data": "0xffffffffffffffffffffffffffffffffffffffffffffffffffffffffffffffc4000000000000000000000000000000000000000000000000000000000000003c0000000000000000000000000000000000000000000000000de0b6b3a7640000",
          "blockHash": "0x32493ce5721ac1b91064bdb48002fc6c0a5131b7b4cfbccaf7ad62dbcb66b436",
          "blockNumber": "0x5c7db3",
          "transactionHash": "0x1af6c9c2b0ec1c5c784705f4a4c1881bb318a87f06232b09d7b76104a025c969",
          "transactionIndex": "0x1d",
          "logIndex": "0x3c",
          "removed": false
        },
        {
          "address": "0x9fe71a8fb340e1cc13f61691bcaddb83ae6c00ac",
          "topics": [
            "0xddf252ad1be2c89b69c2b068fc378daa952ba7f163c4a11628f55a4df523b3ef",
            "0x0000000000000000000000003dc925e1fb6b45684e892b7f521f4751089c4949",
            "0x00000000000000000000000075e7c1fd26deff28c7d1e82564ad5c24ca10db14"
          ],
          "data": "0x000000000000000000000000000000000000000000000000000aa4426c1f8e7d",
          "blockHash": "0x32493ce5721ac1b91064bdb48002fc6c0a5131b7b4cfbccaf7ad62dbcb66b436",
          "blockNumber": "0x5c7db3",
          "transactionHash": "0x1af6c9c2b0ec1c5c784705f4a4c1881bb318a87f06232b09d7b76104a025c969",
          "transactionIndex": "0x1d",
          "logIndex": "0x3d",
          "removed": false
        }
      ],
      "logsBloom": "0x00000000100000000000000000000000000000000000000000000000000000000002000000000000000000000800000000000000000000000000000000000000000000000000200008000008000000000000000001000000000000000080000010000000000000000000000000000020000000000000000000000010000200000000000000000200000010040000000000000000000000000000000000000000000000000000000000000000804000000000000000000000000000000000000000010002080000000000004000020000000000000000000000000000000000000000000000000000040004000000000000000000000000000000000000000000",
      "type": "0x2",
      "transactionHash": "0x1af6c9c2b0ec1c5c784705f4a4c1881bb318a87f06232b09d7b76104a025c969",
      "transactionIndex": "0x1d",
      "blockHash": "0x32493ce5721ac1b91064bdb48002fc6c0a5131b7b4cfbccaf7ad62dbcb66b436",
      "blockNumber": "0x5c7db3",
      "gasUsed": "0x43127",
      "effectiveGasPrice": "0x3b9fb39e",
      "from": "0x3dc925e1fb6b45684e892b7f521f4751089c4949",
      "to": "0x2b925d1036e2e17f79cf9bb44ef91b95a3f9a084",
      "contractAddress": null
    }
  ],
  "libraries": [],
  "pending": [],
  "returns": {},
  "timestamp": 1717807021,
  "chain": 11155111,
  "commit": "226b399"
}