{
  "transactions": [
    {
      "hash": "0x43aa2444618c73f467e697d8649661005366e5c916ba0d667cc954202d960698",
      "transactionType": "CALL",
      "contractName": null,
      "contractAddress": "0x75e7c1fd26deff28c7d1e82564ad5c24ca10db14",
      "function": "initialize((address,address,uint24,int24,address),uint160,bytes)",
      "arguments": [
        "(0x0000000000000000000000000000000000000000, 0x9fE71A8fb340E1cC13F61691bCaDDB83aE6c00ac, 3000, 60, 0x0000000000000000000000000000000000000000)",
        "79228162514264337593543950336",
        "0x"
      ],
      "transaction": {
        "from": "0x3dc925e1fb6b45684e892b7f521f4751089c4949",
        "to": "0x75e7c1fd26deff28c7d1e82564ad5c24ca10db14",
        "gas": "0x125fc",
        "value": "0x0",
        "input": "0x695c5bf500000000000000000000000000000000000000000000000000000000000000000000000000000000000000009fe71a8fb340e1cc13f61691bcaddb83ae6c00ac0000000000000000000000000000000000000000000000000000000000000bb8000000000000000000000000000000000000000000000000000000000000003c0000000000000000000000000000000000000000000000000000000000000000000000000000000000000000000000000000000100000000000000000000000000000000000000000000000000000000000000000000000000000000000000e00000000000000000000000000000000000000000000000000000000000000000",
        "nonce": "0x7f",
        "chainId": "0xaa36a7"
      },
      "additionalContracts": [],
      "isFixedGasLimit": false
    }
  ],
  "receipts": [
    {
      "status": "0x1",
      "cumulativeGasUsed": "0x4e8a25",
      "logs": [
        {
          "address": "0x75e7c1fd26deff28c7d1e82564ad5c24ca10db14",
          "topics": [
            "0x3fd553db44f207b1f41348cfc4d251860814af9eadc470e8e7895e4d120511f4",
            "0x0000000000000000000000000000000000000000000000000000000000000000",
            "0x0000000000000000000000009fe71a8fb340e1cc13f61691bcaddb83ae6c00ac"
          ],
          "data": "0xed3d0f750b26aa12931160661fdcc8bc3b9e716dca1aa60011a70b10e048b0320000000000000000000000000000000000000000000000000000000000000bb8000000000000000000000000000000000000000000000000000000000000003c0000000000000000000000000000000000000000000000000000000000000000",
          "blockHash": "0xb5793bc5da7b9043295ef48f70d6166bb2a9a4c1053df595ca6975e904038470",
          "blockNumber": "0x5c7d94",
          "transactionHash": "0x43aa2444618c73f467e697d8649661005366e5c916ba0d667cc954202d960698",
          "transactionIndex": "0x2e",
          "logIndex": "0x41",
          "removed": false
        }
      ],
      "logsBloom": "0x00002000000000000000000000000000000000000000000000000000000000000000000000000000000000000000000000000000000000000000000000000000000000000000000008000000000120000000000000000000000000000000000000000000020000000000000000000800000000000000000000000000000000020000000000000000000010000000000000000000000000000000000000000000000000000000000000000000000000000000000000000000000000000000000000000000000000000000004000000000000000000000000000000000000020040000000000000000000000000000000000000000000002000000000000000000",
      "type": "0x2",
      "transactionHash": "0x43aa2444618c73f467e697d8649661005366e5c916ba0d667cc954202d960698",
      "transactionIndex": "0x2e",
      "blockHash": "0xb5793bc5da7b9043295ef48f70d6166bb2a9a4c1053df595ca6975e904038470",
      "blockNumber": "0x5c7d94",
      "gasUsed": "0xd4d8",
      "effectiveGasPrice": "0x1ddd3204",
      "from": "0x3dc925e1fb6b45684e892b7f521f4751089c4949",
      "to": "0x75e7c1fd26deff28c7d1e82564ad5c24ca10db14",
      "contractAddress": null
    }
  ],
  "libraries": [],
  "pending": [],
  "returns": {},
  "timestamp": 1717806612,
  "chain": 11155111,
  "commit": "226b399"
}