{
  "transactions": [
    {
      "hash": "0x8f25487a03f29973566eea41f7e36d283d33490b7f311195a7f11cffbf4429d3",
      "transactionType": "CALL",
      "contractName": null,
      "contractAddress": "0xb8b53649b87f0e1eb3923305490a5cb288083f82",
      "function": "swap((address,address,uint24,int24,address),(bool,int256,uint160),(bool,bool),bytes)",
      "arguments": [
        "(0x0000000000000000000000000000000000000000, 0x9fE71A8fb340E1cC13F61691bCaDDB83aE6c00ac, 3000, 60, 0x8Db2126407C061e04092b0e1FA0e941E94BE0040)",
        "(true, -1000000000000000, 4295128740)",
        "(true, false)",
        "0x0000000000000000000000003dc925e1fb6b45684e892b7f521f4751089c4949"
      ],
      "transaction": {
        "from": "0x3dc925e1fb6b45684e892b7f521f4751089c4949",
        "to": "0xb8b53649b87f0e1eb3923305490a5cb288083f82",
        "gas": "0x8f06a",
        "value": "0x38d7ea4c68000",
        "input": "0x2229d0b400000000000000000000000000000000000000000000000000000000000000000000000000000000000000009fe71a8fb340e1cc13f61691bcaddb83ae6c00ac0000000000000000000000000000000000000000000000000000000000000bb8000000000000000000000000000000000000000000000000000000000000003c0000000000000000000000008db2126407c061e04092b0e1fa0e941e94be00400000000000000000000000000000000000000000000000000000000000000001fffffffffffffffffffffffffffffffffffffffffffffffffffc72815b39800000000000000000000000000000000000000000000000000000000001000276a400000000000000000000000000000000000000000000000000000000000000010000000000000000000000000000000000000000000000000000000000000000000000000000000000000000000000000000000000000000000000000000016000000000000000000000000000000000000000000000000000000000000000200000000000000000000000003dc925e1fb6b45684e892b7f521f4751089c4949",
        "nonce": "0x8f",
        "chainId": "0xaa36a7"
      },
      "additionalContracts": [],
      "isFixedGasLimit": false
    }
  ],
  "receipts": [
    {
      "status": "0x1",
      "cumulativeGasUsed": "0x678190",
      "logs": [
        {
          "address": "0x75e7c1fd26deff28c7d1e82564ad5c24ca10db14",
          "topics": [
            "0x40e9cecb9f5f1f1c5b9c97dec2917b7ee92e57ba5563708daca94dd84ad7112f",
            "0x811f4c0fa2e22424aef68a191c575166cf9151470d29d9ad2c7dbb2d2ebddb69"
          ],
          "data": "0x000000000000000000000000b8b53649b87f0e1eb3923305490a5cb288083f82fffffffffffffffffffffffffffffffffffffffffffffffffffc72815b398000000000000000000000000000000000000000000000000000000389dcf24c771f0000000000000000000000000000000000000000ffbeb9c6970024779a0a218f0000000000000000000000000000000000000000000000000de0b6b3a7640000ffffffffffffffffffffffffffffffffffffffffffffffffffffffffffffffec0000000000000000000000000000000000000000000000000000000000000bb8",
          "blockHash": "0xece3ef263dbfd588efabeec953d7cb72cd13bf31c493a1dd19cd84517091b149",
          "blockNumber": "0x5c8256",
          "transactionHash": "0x8f25487a03f29973566eea41f7e36d283d33490b7f311195a7f11cffbf4429d3",
          "transactionIndex": "0x35",
          "logIndex": "0x64",
          "removed": false
        },
        {
          "address": "0x8db2126407c061e04092b0e1fa0e941e94be0040",
          "topics": [
            "0xc3d58168c5ae7397731d063d5bbf3d657854427343f4c083240f7aacaa2d0f62",
            "0x00000000000000000000000075e7c1fd26deff28c7d1e82564ad5c24ca10db14",
            "0x0000000000000000000000000000000000000000000000000000000000000000",
            "0x0000000000000000000000003dc925e1fb6b45684e892b7f521f4751089c4949"
          ],
          "data": "0x0000000000000000000000000000000000000000000000000000000000000001000000000000000000000000000000000000000000000000000000e8d4a51000",
          "blockHash": "0xece3ef263dbfd588efabeec953d7cb72cd13bf31c493a1dd19cd84517091b149",
          "blockNumber": "0x5c8256",
          "transactionHash": "0x8f25487a03f29973566eea41f7e36d283d33490b7f311195a7f11cffbf4429d3",
          "transactionIndex": "0x35",
          "logIndex": "0x65",
          "removed": false
        },
        {
          "address": "0x75e7c1fd26deff28c7d1e82564ad5c24ca10db14",
          "topics": [
            "0x1b3d7edb2e9c0b0e7c525b20aaaef0f5940d2ed71663c7d39266ecafac728859",
            "0x0000000000000000000000000000000000000000000000000000000000000000",
            "0x0000000000000000000000003dc925e1fb6b45684e892b7f521f4751089c4949",
            "0x0000000000000000000000009fe71a8fb340e1cc13f61691bcaddb83ae6c00ac"
          ],
          "data": "0x000000000000000000000000b8b53649b87f0e1eb3923305490a5cb288083f82000000000000000000000000000000000000000000000000000389dcf24c771f",
          "blockHash": "0xece3ef263dbfd588efabeec953d7cb72cd13bf31c493a1dd19cd84517091b149",
          "blockNumber": "0x5c8256",
          "transactionHash": "0x8f25487a03f29973566eea41f7e36d283d33490b7f311195a7f11cffbf4429d3",
          "transactionIndex": "0x35",
          "logIndex": "0x66",
          "removed": false
        }
      ],
      "logsBloom": "0x00002000000000000000000000000000000000000000400000000000000000000000000000000000000000000800000000000000040000000010000004002000000000000000000008000000000104000000000001000020000000000000000000000000020000000000000000000800000000000000000000000000000200020000000000000000000010040000000000000000000000004000000000000000000000000000400000000000800020000000000000000000000001000000000000000000000000000000004000000000000000000008000000000000000020000000000000000000004004000000000000000000000000000000080004000000",
      "type": "0x2",
      "transactionHash": "0x8f25487a03f29973566eea41f7e36d283d33490b7f311195a7f11cffbf4429d3",
      "transactionIndex": "0x35",
      "blockHash": "0xece3ef263dbfd588efabeec953d7cb72cd13bf31c493a1dd19cd84517091b149",
      "blockNumber": "0x5c8256",
      "gasUsed": "0x61cbb",
      "effectiveGasPrice": "0x1de5f906",
      "from": "0x3dc925e1fb6b45684e892b7f521f4751089c4949",
      "to": "0xb8b53649b87f0e1eb3923305490a5cb288083f82",
      "contractAddress": null
    }
  ],
  "libraries": [],
  "pending": [],
  "returns": {},
  "timestamp": 1717821973,
  "chain": 11155111,
  "commit": "e72cb5d"
}