{
  "transactions": [
    {
      "hash": "0xb884f4cd06e20ba8a50a50c766d4f435b501e0dedd1014d5ead0f39041a3384b",
      "transactionType": "CALL",
      "contractName": null,
      "contractAddress": "0x75e7c1fd26deff28c7d1e82564ad5c24ca10db14",
      "function": "initialize((address,address,uint24,int24,address),uint160,bytes)",
      "arguments": [
        "(0x0000000000000000000000000000000000000000, 0x9fE71A8fb340E1cC13F61691bCaDDB83aE6c00ac, 3000, 60, 0xcb74d7e5C3c2ec8E32Bb795f9050aF86a9364040)",
        "79228162514264337593543950336",
        "0x"
      ],
      "transaction": {
        "from": "0x3dc925e1fb6b45684e892b7f521f4751089c4949",
        "to": "0x75e7c1fd26deff28c7d1e82564ad5c24ca10db14",
        "gas": "0x138c3",
        "value": "0x0",
        "input": "0x695c5bf500000000000000000000000000000000000000000000000000000000000000000000000000000000000000009fe71a8fb340e1cc13f61691bcaddb83ae6c00ac0000000000000000000000000000000000000000000000000000000000000bb8000000000000000000000000000000000000000000000000000000000000003c000000000000000000000000cb74d7e5c3c2ec8e32bb795f9050af86a9364040000000000000000000000000000000000000000100000000000000000000000000000000000000000000000000000000000000000000000000000000000000e00000000000000000000000000000000000000000000000000000000000000000",
        "nonce": "0x84",
        "chainId": "0xaa36a7"
      },
      "additionalContracts": [],
      "isFixedGasLimit": false
    },
    {
      "hash": "0xed884e935c5afd15e00e0bb72f3e8ff26274c2ada68d9f5c16394f7faecfaec1",
      "transactionType": "CALL",
      "contractName": null,
      "contractAddress": "0x9fe71a8fb340e1cc13f61691bcaddb83ae6c00ac",
      "function": "mint(address,uint256)",
      "arguments": [
        "0x3DC925E1FB6b45684e892b7f521f4751089c4949",
        "1000000000000000000000"
      ],
      "transaction": {
        "from": "0x3dc925e1fb6b45684e892b7f521f4751089c4949",
        "to": "0x9fe71a8fb340e1cc13f61691bcaddb83ae6c00ac",
        "gas": "0xb800",
        "value": "0x0",
        "input": "0x40c10f190000000000000000000000003dc925e1fb6b45684e892b7f521f4751089c494900000000000000000000000000000000000000000000003635c9adc5dea00000",
        "nonce": "0x85",
        "chainId": "0xaa36a7"
      },
      "additionalContracts": [],
      "isFixedGasLimit": false
    },
    {
      "hash": "0x8526e596f72ff41ea38d7c30faa10fdb84cae19c9fa4f38bbc089730dfdd7e36",
      "transactionType": "CALL",
      "contractName": null,
      "contractAddress": "0x9fe71a8fb340e1cc13f61691bcaddb83ae6c00ac",
      "function": "approve(address,uint256)",
      "arguments": [
        "0x2b925D1036E2E17F79CF9bB44ef91B95a3f9a084",
        "115792089237316195423570985008687907853269984665640564039457584007913129639935"
      ],
      "transaction": {
        "from": "0x3dc925e1fb6b45684e892b7f521f4751089c4949",
        "to": "0x9fe71a8fb340e1cc13f61691bcaddb83ae6c00ac",
        "gas": "0x97e3",
        "value": "0x0",
        "input": "0x095ea7b30000000000000000000000002b925d1036e2e17f79cf9bb44ef91b95a3f9a084ffffffffffffffffffffffffffffffffffffffffffffffffffffffffffffffff",
        "nonce": "0x86",
        "chainId": "0xaa36a7"
      },
      "additionalContracts": [],
      "isFixedGasLimit": false
    },
    {
      "hash": "0xf610471f7fcfd17635581d5d3af6c2a7ed1ac7db75a4db67b674171c4e1d53b9",
      "transactionType": "CALL",
      "contractName": null,
      "contractAddress": "0x9fe71a8fb340e1cc13f61691bcaddb83ae6c00ac",
      "function": "approve(address,uint256)",
      "arguments": [
        "0xB8b53649b87F0e1eb3923305490a5cB288083f82",
        "115792089237316195423570985008687907853269984665640564039457584007913129639935"
      ],
      "transaction": {
        "from": "0x3dc925e1fb6b45684e892b7f521f4751089c4949",
        "to": "0x9fe71a8fb340e1cc13f61691bcaddb83ae6c00ac",
        "gas": "0x97e3",
        "value": "0x0",
        "input": "0x095ea7b3000000000000000000000000b8b53649b87f0e1eb3923305490a5cb288083f82ffffffffffffffffffffffffffffffffffffffffffffffffffffffffffffffff",
        "nonce": "0x87",
        "chainId": "0xaa36a7"
      },
      "additionalContracts": [],
      "isFixedGasLimit": false
    },
    {
      "hash": "0x7e0ebb22673be87beb594eaf7b126ba65ab3e6e5759b55e55f711ae55c9fa583",
      "transactionType": "CALL",
      "contractName": null,
      "contractAddress": "0x2b925d1036e2e17f79cf9bb44ef91b95a3f9a084",
      "function": "modifyLiquidity((address,address,uint24,int24,address),(int24,int24,int256,bytes32),bytes)",
      "arguments": [
        "(0x0000000000000000000000000000000000000000, 0x9fE71A8fb340E1cC13F61691bCaDDB83aE6c00ac, 3000, 60, 0xcb74d7e5C3c2ec8E32Bb795f9050aF86a9364040)",
        "(-60, 60, 1000000000000000000, 0x0000000000000000000000000000000000000000000000000000000000000000)",
        "0x"
      ],
      "transaction": {
        "from": "0x3dc925e1fb6b45684e892b7f521f4751089c4949",
        "to": "0x2b925d1036e2e17f79cf9bb44ef91b95a3f9a084",
        "gas": "0x56df2",
        "value": "0xaa87bee538000",
        "input": "0x5a6bcfda00000000000000000000000000000000000000000000000000000000000000000000000000000000000000009fe71a8fb340e1cc13f61691bcaddb83ae6c00ac0000000000000000000000000000000000000000000000000000000000000bb8000000000000000000000000000000000000000000000000000000000000003c000000000000000000000000cb74d7e5c3c2ec8e32bb795f9050af86a9364040ffffffffffffffffffffffffffffffffffffffffffffffffffffffffffffffc4000000000000000000000000000000000000000000000000000000000000003c0000000000000000000000000000000000000000000000000de0b6b3a7640000000000000000000000000000000000000000000000000000000000000000000000000000000000000000000000000000000000000000000000000000000001400000000000000000000000000000000000000000000000000000000000000000",
        "nonce": "0x88",
        "chainId": "0xaa36a7"
      },
      "additionalContracts": [],
      "isFixedGasLimit": false
    }
  ],
  "receipts": [
    {
      "status": "0x1",
      "cumulativeGasUsed": "0x1069328",
      "logs": [
        {
          "address": "0x75e7c1fd26deff28c7d1e82564ad5c24ca10db14",
          "topics": [
            "0x3fd553db44f207b1f41348cfc4d251860814af9eadc470e8e7895e4d120511f4",
            "0x0000000000000000000000000000000000000000000000000000000000000000",
            "0x0000000000000000000000009fe71a8fb340e1cc13f61691bcaddb83ae6c00ac"
          ],
          "data": "0x1c0c2ed3be396bbaa6851ee6baf2e80bc58ad92c27c7f8b7501ecc7327e27cef0000000000000000000000000000000000000000000000000000000000000bb8000000000000000000000000000000000000000000000000000000000000003c000000000000000000000000cb74d7e5c3c2ec8e32bb795f9050af86a9364040",
          "blockHash": "0x51add438dba613950f548928ce95976c853935c82c41785ffeea85578a02d94d",
          "blockNumber": "0x5c7df2",
          "transactionHash": "0xb884f4cd06e20ba8a50a50c766d4f435b501e0dedd1014d5ead0f39041a3384b",
          "transactionIndex": "0x74",
          "logIndex": "0xff",
          "removed": false
        }
      ],
      "logsBloom": "0x00002000000000000000000000000000000000000000000000000000000000000000000000000000000000000000000000000000000000000000000000000000000000000000000008000000000120000000000000000000000000000000000000000000020000000000000000000800000000000000000000000000000000020000000000000000000010000000000000000000000000000000000000000000000000000000000000000000000000000000000000000000000000000000000000000000000000000000004000000000000000000000000000000000000020040000000000000000000000000000000000000000000002000000000000000000",
      "type": "0x2",
      "transactionHash": "0xb884f4cd06e20ba8a50a50c766d4f435b501e0dedd1014d5ead0f39041a3384b",
      "transactionIndex": "0x74",
      "blockHash": "0x51add438dba613950f548928ce95976c853935c82c41785ffeea85578a02d94d",
      "blockNumber": "0x5c7df2",
      "gasUsed": "0xd5db",
      "effectiveGasPrice": "0x11dcdf",
      "from": "0x3dc925e1fb6b45684e892b7f521f4751089c4949",
      "to": "0x75e7c1fd26deff28c7d1e82564ad5c24ca10db14",
      "contractAddress": null
    },
    {
      "status": "0x1",
      "cumulativeGasUsed": "0x107185f",
      "logs": [
        {
          "address": "0x9fe71a8fb340e1cc13f61691bcaddb83ae6c00ac",
          "topics": [
            "0xddf252ad1be2c89b69c2b068fc378daa952ba7f163c4a11628f55a4df523b3ef",
            "0x0000000000000000000000000000000000000000000000000000000000000000",
            "0x0000000000000000000000003dc925e1fb6b45684e892b7f521f4751089c4949"
          ],
          "data": "0x00000000000000000000000000000000000000000000003635c9adc5dea00000",
          "blockHash": "0x51add438dba613950f548928ce95976c853935c82c41785ffeea85578a02d94d",
          "blockNumber": "0x5c7df2",
          "transactionHash": "0xed884e935c5afd15e00e0bb72f3e8ff26274c2ada68d9f5c16394f7faecfaec1",
          "transactionIndex": "0x75",
          "logIndex": "0x100",
          "removed": false
        }
      ],
      "logsBloom": "0x00000000000000000000000000000000000000000000000000000000000000000000000000000000000000000800000000000000000000000000000000000000000000000000000000000008000000000000000001000000000000000000000000000000020000000000000000000820000000000000000000000010000200000000000000000200000000000000000000000000000000000000000000000000000000000000000000000000000000000000000000000000000000000000000000000002080000000000000000000000000000000000000000000000000020000000000000000000000000000000000000000000000000000000000000000000",
      "type": "0x2",
      "transactionHash": "0xed884e935c5afd15e00e0bb72f3e8ff26274c2ada68d9f5c16394f7faecfaec1",
      "transactionIndex": "0x75",
      "blockHash": "0x51add438dba613950f548928ce95976c853935c82c41785ffeea85578a02d94d",
      "blockNumber": "0x5c7df2",
      "gasUsed": "0x8537",
      "effectiveGasPrice": "0x11dcdf",
      "from": "0x3dc925e1fb6b45684e892b7f521f4751089c4949",
      "to": "0x9fe71a8fb340e1cc13f61691bcaddb83ae6c00ac",
      "contractAddress": null
    },
    {
      "status": "0x1",
      "cumulativeGasUsed": "0x107803a",
      "logs": [
        {
          "address": "0x9fe71a8fb340e1cc13f61691bcaddb83ae6c00ac",
          "topics": [
            "0x8c5be1e5ebec7d5bd14f71427d1e84f3dd0314c0f7b2291e5b200ac8c7c3b925",
            "0x0000000000000000000000003dc925e1fb6b45684e892b7f521f4751089c4949",
            "0x0000000000000000000000002b925d1036e2e17f79cf9bb44ef91b95a3f9a084"
          ],
          "data": "0xffffffffffffffffffffffffffffffffffffffffffffffffffffffffffffffff",
          "blockHash": "0x51add438dba613950f548928ce95976c853935c82c41785ffeea85578a02d94d",
          "blockNumber": "0x5c7df2",
          "transactionHash": "0x8526e596f72ff41ea38d7c30faa10fdb84cae19c9fa4f38bbc089730dfdd7e36",
          "transactionIndex": "0x76",
          "logIndex": "0x101",
          "removed": false
        }
      ],
      "logsBloom": "0x00000000000000000000000000000000000000000000000000000000000000000002000000000000000000000800000000000000000000000000000000200000000000000000200000000000000000000000000001000000000000000000000000000000000000000000000000000020000000000000000000000000000200000000000000000200000000000000000000000000000000000000000000000000020000000000000000000000000000000000000000000000000000000000000000000000080000000000000000020000000000000000000000000000000000000010000000000000000000000000000000000000000000000000000000000000",
      "type": "0x2",
      "transactionHash": "0x8526e596f72ff41ea38d7c30faa10fdb84cae19c9fa4f38bbc089730dfdd7e36",
      "transactionIndex": "0x76",
      "blockHash": "0x51add438dba613950f548928ce95976c853935c82c41785ffeea85578a02d94d",
      "blockNumber": "0x5c7df2",
      "gasUsed": "0x67db",
      "effectiveGasPrice": "0x11dcdf",
      "from": "0x3dc925e1fb6b45684e892b7f521f4751089c4949",
      "to": "0x9fe71a8fb340e1cc13f61691bcaddb83ae6c00ac",
      "contractAddress": null
    },
    {
      "status": "0x1",
      "cumulativeGasUsed": "0x107e815",
      "logs": [
        {
          "address": "0x9fe71a8fb340e1cc13f61691bcaddb83ae6c00ac",
          "topics": [
            "0x8c5be1e5ebec7d5bd14f71427d1e84f3dd0314c0f7b2291e5b200ac8c7c3b925",
            "0x0000000000000000000000003dc925e1fb6b45684e892b7f521f4751089c4949",
            "0x000000000000000000000000b8b53649b87f0e1eb3923305490a5cb288083f82"
          ],
          "data": "0xffffffffffffffffffffffffffffffffffffffffffffffffffffffffffffffff",
          "blockHash": "0x51add438dba613950f548928ce95976c853935c82c41785ffeea85578a02d94d",
          "blockNumber": "0x5c7df2",
          "transactionHash": "0xf610471f7fcfd17635581d5d3af6c2a7ed1ac7db75a4db67b674171c4e1d53b9",
          "transactionIndex": "0x77",
          "logIndex": "0x102",
          "removed": false
        }
      ],
      "logsBloom": "0x00000000000000000000000000000000000000000000000000000000000000000000000000000000000000000800000000000000000000000000000000200000000000000000000000000000000000000000000001000000000000000000000000000000000001000000000000000020000000000000000000000000000200000000000000000200000000000000000000000000000000000000000000000000020000000000000000000000000000000000000000000000000000000000000000000000080000000000000000000000000000000000000000000000000000040010000000000000000000000000000000000000000000000000000000200000",
      "type": "0x2",
      "transactionHash": "0xf610471f7fcfd17635581d5d3af6c2a7ed1ac7db75a4db67b674171c4e1d53b9",
      "transactionIndex": "0x77",
      "blockHash": "0x51add438dba613950f548928ce95976c853935c82c41785ffeea85578a02d94d",
      "blockNumber": "0x5c7df2",
      "gasUsed": "0x67db",
      "effectiveGasPrice": "0x11dcdf",
      "from": "0x3dc925e1fb6b45684e892b7f521f4751089c4949",
      "to": "0x9fe71a8fb340e1cc13f61691bcaddb83ae6c00ac",
      "contractAddress": null
    },
    {
      "status": "0x1",
      "cumulativeGasUsed": "0x10bd662",
      "logs": [
        {
          "address": "0x75e7c1fd26deff28c7d1e82564ad5c24ca10db14",
          "topics": [
            "0x541c041c2cce48e614b3de043c9280f06b6164c0a1741649e2de3c3d375f7974",
            "0x1c0c2ed3be396bbaa6851ee6baf2e80bc58ad92c27c7f8b7501ecc7327e27cef",
            "0x0000000000000000000000002b925d1036e2e17f79cf9bb44ef91b95a3f9a084"
          ],
          "data": "0xffffffffffffffffffffffffffffffffffffffffffffffffffffffffffffffc4000000000000000000000000000000000000000000000000000000000000003c0000000000000000000000000000000000000000000000000de0b6b3a7640000",
          "blockHash": "0x51add438dba613950f548928ce95976c853935c82c41785ffeea85578a02d94d",
          "blockNumber": "0x5c7df2",
          "transactionHash": "0x7e0ebb22673be87beb594eaf7b126ba65ab3e6e5759b55e55f711ae55c9fa583",
          "transactionIndex": "0x78",
          "logIndex": "0x103",
          "removed": false
        },
        {
          "address": "0x9fe71a8fb340e1cc13f61691bcaddb83ae6c00ac",
          "topics": [
            "0xddf252ad1be2c89b69c2b068fc378daa952ba7f163c4a11628f55a4df523b3ef",
            "0x0000000000000000000000003dc925e1fb6b45684e892b7f521f4751089c4949",
            "0x00000000000000000000000075e7c1fd26deff28c7d1e82564ad5c24ca10db14"
          ],
          "data": "0x000000000000000000000000000000000000000000000000000aa4426c1f8e7d",
          "blockHash": "0x51add438dba613950f548928ce95976c853935c82c41785ffeea85578a02d94d",
          "blockNumber": "0x5c7df2",
          "transactionHash": "0x7e0ebb22673be87beb594eaf7b126ba65ab3e6e5759b55e55f711ae55c9fa583",
          "transactionIndex": "0x78",
          "logIndex": "0x104",
          "removed": false
        }
      ],
      "logsBloom": "0x00000000100000000040000000000000000000000000000000000000000000000002000000000000000000000800000000000000000000000000000000000000000000000000200008000008000000000000000041000000000000000000000010000000000000000000000000000020000000000000000000000010000200000000000000000200000011040000000000000000000000000000000000000000000000000000000000000000800000000000000000000000000000000000000000000002080000000000004000020000000000000000000000000000000000000000000000000000040004000000000000000000000000000000000000000000",
      "type": "0x2",
      "transactionHash": "0x7e0ebb22673be87beb594eaf7b126ba65ab3e6e5759b55e55f711ae55c9fa583",
      "transactionIndex": "0x78",
      "blockHash": "0x51add438dba613950f548928ce95976c853935c82c41785ffeea85578a02d94d",
      "blockNumber": "0x5c7df2",
      "gasUsed": "0x3ee4d",
      "effectiveGasPrice": "0x11dcdf",
      "from": "0x3dc925e1fb6b45684e892b7f521f4751089c4949",
      "to": "0x2b925d1036e2e17f79cf9bb44ef91b95a3f9a084",
      "contractAddress": null
    }
  ],
  "libraries": [],
  "pending": [],
  "returns": {},
  "timestamp": 1717807803,
  "chain": 11155111,
  "commit": "1b5dce1"
}