{
  "transactions": [
    {
      "hash": "0x5c695d1cea59d0b8a5b20a7b75930d321fef85898a85c2485c0cdd535d754de6",
      "transactionType": "CALL",
      "contractName": null,
      "contractAddress": "0x2b925d1036e2e17f79cf9bb44ef91b95a3f9a084",
      "function": "modifyLiquidity((address,address,uint24,int24,address),(int24,int24,int256,bytes32),bytes)",
      "arguments": [
        "(0x0000000000000000000000000000000000000000, 0x9fE71A8fb340E1cC13F61691bCaDDB83aE6c00ac, 3000, 60, 0x0000000000000000000000000000000000000000)",
        "(-60, 60, 1000000000000000000, 0x0000000000000000000000000000000000000000000000000000000000000000)",
        "0x"
      ],
      "transaction": {
        "from": "0x3dc925e1fb6b45684e892b7f521f4751089c4949",
        "to": "0x2b925d1036e2e17f79cf9bb44ef91b95a3f9a084",
        "gas": "0x56ca7",
        "value": "0x6f05b59d3b20000",
        "input": "0x5a6bcfda00000000000000000000000000000000000000000000000000000000000000000000000000000000000000009fe71a8fb340e1cc13f61691bcaddb83ae6c00ac0000000000000000000000000000000000000000000000000000000000000bb8000000000000000000000000000000000000000000000000000000000000003c0000000000000000000000000000000000000000000000000000000000000000ffffffffffffffffffffffffffffffffffffffffffffffffffffffffffffffc4000000000000000000000000000000000000000000000000000000000000003c0000000000000000000000000000000000000000000000000de0b6b3a7640000000000000000000000000000000000000000000000000000000000000000000000000000000000000000000000000000000000000000000000000000000001400000000000000000000000000000000000000000000000000000000000000000",
        "nonce": "0x97",
        "chainId": "0xaa36a7"
      },
      "additionalContracts": [],
      "isFixedGasLimit": false
    }
  ],
  "receipts": [
    {
      "status": "0x1",
      "cumulativeGasUsed": "0x678653",
      "logs": [
        {
          "address": "0x75e7c1fd26deff28c7d1e82564ad5c24ca10db14",
          "topics": [
            "0x541c041c2cce48e614b3de043c9280f06b6164c0a1741649e2de3c3d375f7974",
            "0xed3d0f750b26aa12931160661fdcc8bc3b9e716dca1aa60011a70b10e048b032",
            "0x0000000000000000000000002b925d1036e2e17f79cf9bb44ef91b95a3f9a084"
          ],
          "data": "0xffffffffffffffffffffffffffffffffffffffffffffffffffffffffffffffc4000000000000000000000000000000000000000000000000000000000000003c0000000000000000000000000000000000000000000000000de0b6b3a7640000",
          "blockHash": "0x933bd1ed4a1359b42f7b74286a0ad57c86a290341e2e3e100ddfc6f140cf7ac3",
          "blockNumber": "0x5c83e6",
          "transactionHash": "0x5c695d1cea59d0b8a5b20a7b75930d321fef85898a85c2485c0cdd535d754de6",
          "transactionIndex": "0x37",
          "logIndex": "0x64",
          "removed": false
        },
        {
          "address": "0x9fe71a8fb340e1cc13f61691bcaddb83ae6c00ac",
          "topics": [
            "0xddf252ad1be2c89b69c2b068fc378daa952ba7f163c4a11628f55a4df523b3ef",
            "0x0000000000000000000000003dc925e1fb6b45684e892b7f521f4751089c4949",
            "0x00000000000000000000000075e7c1fd26deff28c7d1e82564ad5c24ca10db14"
          ],
          "data": "0x000000000000000000000000000000000000000000000000000aa4426c1f8e7d",
          "blockHash": "0x933bd1ed4a1359b42f7b74286a0ad57c86a290341e2e3e100ddfc6f140cf7ac3",
          "blockNumber": "0x5c83e6",
          "transactionHash": "0x5c695d1cea59d0b8a5b20a7b75930d321fef85898a85c2485c0cdd535d754de6",
          "transactionIndex": "0x37",
          "logIndex": "0x65",
          "removed": false
        }
      ],
      "logsBloom": "0x00000000100000000000000000000000000000000000000000000000000000000002000000000000000000000800000000000000000000000000000000000000000000000000200008000008000000000000000001000000000000000000000010000000000000000000000000000020000000240000000000000010000200000000000000010200000010040000000000000000000000000000000000000000000000000000000000000000800000000000000000000000000000000000000000000002080000000000004000020000000000000000000000000000000000000000000000000000040004000000000000000000000000000000000000000000",
      "type": "0x2",
      "transactionHash": "0x5c695d1cea59d0b8a5b20a7b75930d321fef85898a85c2485c0cdd535d754de6",
      "transactionIndex": "0x37",
      "blockHash": "0x933bd1ed4a1359b42f7b74286a0ad57c86a290341e2e3e100ddfc6f140cf7ac3",
      "blockNumber": "0x5c83e6",
      "gasUsed": "0x3ed5d",
      "effectiveGasPrice": "0x3136f49e",
      "from": "0x3dc925e1fb6b45684e892b7f521f4751089c4949",
      "to": "0x2b925d1036e2e17f79cf9bb44ef91b95a3f9a084",
      "contractAddress": null
    }
  ],
  "libraries": [],
  "pending": [],
  "returns": {},
  "timestamp": 1717827065,
  "chain": 11155111,
  "commit": "e72cb5d"
}